:03000000020936BC
:0C093600787FE4F6D8FD75811B02097D76
:100A1B000208FDFD100A3F065B4F666D7D077F6F79
:060A2B00777C585E797132
:10080000C2A3C2A4C2A57F55120A02120A37AFA022
:10081000EF243D605A24FE70030208B314700302F3
:1008200008F4243F6003020935751A00751B05E5BD
:100830001B151BAE1A7002151A4E7003020935AF54
:10084000081209E9AF0A1209E9AF091209E9AF0A6A
:100850001209E9D2A37F95120A02120A371209C2BD
:100860007F151209E9120A371209C2C2A380C0AF6C
:10087000081209E9AF0A1209E9AF091209E9AF0B39
:100880001209E9751A00751B05E51B151BAE1A70D8
:1008900002151A4E7003020935D2A37F65120A02AF
:1008A000120A371209C27F451209E9120A371209E2
:1008B000C280D6AF081209E9AF0A1209E9AF0912DE
:1008C00009E9AF0C1209E9751A00751B05E51B153E
:1008D0001BAE1A7002151A4E605BD2A37F15120A66
:1008E00002120A371209C27F951209E9120A371259
:1008F00009C280D9AF081209E9AF0A1209E9AF09A4
:100900001209E9AF0A1209E9751A00751B05E51B02
:10091000151BAE1A7002151A4E601AD2A37F45122B
:100920000A02120A371209C27F651209E9120A3750
:050930001209C280D98C
:01093500229F
:1009E900E4FDFC9281EF25E0FFC280D2800DBD00BD
:0809F900010CED64084C70EBE9
:010A010022D2
:050A3200C282D2822205
:100A0200E4FDFCEF25E0FF9284C283D2830DBD009A
:080A1200010CED64084C70EBCF
:010A1A0022B9
:050A3700C285D28522FA
:0409C2007F057E002F
:1009C600E4FDFCAB07AA06D3EF9400EE94004007C3
:1009D600EB1B70F31A80F00DBD00010CED647D4C2D
:0209E60070E1BE
:0109E80022EC
:10094200020800E493A3F8E493A34003F68001F2C3
:1009520008DFF48029E493A3F85407240CC8C333B6
:10096200C4540F4420C8834004F456800146F6DF85
:10097200E4800B0102040810204080900A1BE47EF0
:10098200019360BCA3FF543F30E509541FFEE4937A
:10099200A360010ECF54C025E060A840B8E493A341
:1009A200FAE493A3F8E493A3C8C582C8CAC583CA6C
:1009B200F0A3C8C582C8CAC583CADFE9DEE780BE24
:010A310000C4
:00000001FF
