:030000000201FA00
:0C01FA00787FE4F6D8FD75810B0200034D
:10000300C2B375A00130B2030201CEC2B3E4F50856
:10001300F509AFA07801EF08800123D8FD1201CFC5
:100023000509E50970020508C39407E5086480948F
:100033008040DF750800750907AFA07801EF0880DD
:100043000103D8FD1201CFE509150970021508D384
:10005300E5099400E5086480948050DDE4F508F533
:1000630009AFA07801EF08800123D8FD1201CF0565
:1000730009E50970020508C39407E50864809480C4
:1000830040DF75A081E4F508F509AFA07801EF081A
:10009300800123D8FD1201CF0509E5097002050887
:1000A300C39407E5086480948040DF75A083E4F57A
:1000B30008F509AFA07801EF08800123D8FD1201EC
:1000C300CF0509E50970020508C39406E5086480B5
:1000D300948040DF75A087E4F508F509AFA07801A7
:1000E300EF08800123D8FD1201CF0509E50970024D
:1000F3000508C39405E5086480948040DF75A08FEC
:10010300E4F508F509AFA07801EF08800123D8FDD5
:100113001201CF0509E50970020508C39404E50837
:100123006480948040DF75A0BFE4F508F509AFA0B3
:100133007801EF08800123D8FD1201CF0509E509F5
:1001430070020508C39403E5086480948040DF755A
:10015300A0EFE4F508F509AFA07801EF08800123CB
:10016300D8FD1201CF0509E50970020508C3940201
:10017300E5086480948040DF75A0FFE4F508F50985
:10018300AFA07801EF08800123D8FD1201CF050944
:10019300E50970020508C39401E508648094804072
:1001A300DFE4F50AF50B75A0FFD2B31201D1E4F534
:1001B300A0C2B31201D1050BE50B7002050AC3946B
:0B01C30008E50A6480948040DD80FEA7
:0101CE00220E
:0601CF00F5A07FF47E01A3
:1001D500E4FDFCAB07AA06D3EB9400EA64809480A7
:1001E5004007EB1B70F11A80EE0DBD00010CED64AC
:0401F5006E4C70DFFD
:0101F90022E3
:00000001FF
