:030000000208B73C
:0C08B700787FE4F6D8FD7581250208FE6C
:100A4300100A3F065B4F666D7D077F6F777C585EAC
:060A530079710208FEFDAE
:10080000E4F5A030A0030208B6751E00751F1E7522
:10081000A00CAF1FAE1E12094375A0047F287E00F6
:10082000120A01E51F151F7002151ED3E51F940360
:10083000E51E6480948050D7751E00751F03E4F593
:10084000A0AF1FAE1E12094375A00C7F1E7E0012C2
:100850000A01E51F151F7002151ED3E51F9400E560
:100860001E6480948050D7751C00751D0375A0020E
:10087000AF1DAE1C120943E51D151D7002151CD3DA
:10088000E51D9400E51C6480948050E1751A0075A4
:100890001B39D3E51B9400E51A6480948050030251
:1008A000080975A001AF1BAE1A120943E51B151B01
:0608B0007002151A80DC45
:0108B600221F
:04094300AB07AA064E
:100947007C007D0A1209AC8E208F21AE02AF037C9A
:10095700007D0A1209AC8C228D23E4F524F525AF1E
:1009670008120A26740A2521F8E6FF120A26120A37
:100977005A7F057E00120A01AF09120A26740A255A
:1009870023F8E6FF120A26120A5A7F057E00120A8A
:10099700010525E52570020524C39428E524648014
:0409A700948040BB3D
:0109AB002229
:100A2600E4FDFCEF25E0FF9281C2800000D2800049
:0C0A3600000DBD00010CED64084C70E7E1
:010A42002291
:090A5A00C2820000D282000022D9
:100A0100E4FDFCAB07AA06D3EB9400EA6480948072
:100A11004007EB1B70F11A80EE0DBD00010CED6477
:040A21006E4C70DFC8
:010A250022AE
:1008C300020800E493A3F8E493A34003F68001F243
:1008D30008DFF48029E493A3F85407240CC8C33336
:1008E300C4540F4420C8834004F456800146F6DF05
:1008F300E4800B0102040810204080900A43E47E48
:10090300019360BCA3FF543F30E509541FFEE493F9
:10091300A360010ECF54C025E060A840B8E493A3C0
:10092300FAE493A3F8E493A3C8C582C8CAC583CAEB
:10093300F0A3C8C582C8CAC583CADFE9DEE780BEA3
:010A5900009C
:1009AC00BC000BBE0029EF8DF084FFADF022E4CC2F
:1009BC00F875F008EF2FFFEE33FEEC33FCEE9DECF8
:1009CC00984005FCEE9DFE0FD5F0E9E4CEFD22ED3E
:1009DC00F8F5F0EE8420D21CFEADF075F008EF2F88
:1009EC00FFED33FD4007985006D5F0F222C398FD79
:0509FC000FD5F0EA2216
:00000001FF
