:03000000020800F3
:0C080000787FE4F6D8FD758120020847DF
:060905000408FEFDFBF7F3
:0908DE0074082EF8E6F5907FC8BD
:1008E7007D987C3AEFD394004013D3ED9400EC94B9
:0D08F700004007ED1D70F31C80F01F80E72E
:0109040022D0
:10088C00C200C201E5A0540F24F9601924FC6011C8
:10089C0024FE6007147010D201800CC201C20080CB
:1008AC0006D2008002C200300123300010E4FED3D7
:1008BC00EE6480948350CD1208DE0E80F27E03C36A
:1008CC00EE6480948040BD1208DE1E80F27590FFAD
:0208DC0080B2E8
:10080C0002088CE493A3F8E493A34003F68001F26E
:10081C0008DFF48029E493A3F85407240CC8C333ED
:10082C00C4540F4420C8834004F456800146F6DFBC
:10083C00E4800B0102040810204080900905E47E3E
:10084C00019360BCA3FF543F30E509541FFEE493B1
:10085C00A360010ECF54C025E060A840B8E493A378
:10086C00FAE493A3F8E493A3C8C582C8CAC583CAA3
:10087C00F0A3C8C582C8CAC583CADFE9DEE780BE5B
:01090B0000EB
:00000001FF
