:030000000208D41F
:0C08D400787FE4F6D8FD75810A02080068
:100800007508FEC2B375A881750900750A0712083C
:10081000AFAF087801EF08800123D8FDF508E50A9D
:10082000150A70021509D3E50A9400E5096480945D
:100830008050DB750900750A07D3E50A9400E509C5
:100840006480948040C21208AFAF087801EF08803E
:100850000103D8FDF508E50A150A70DD150980D9F0
:0300030002086090
:10086000C0E0C0F0C083C082C0D075D000C000C05E
:1008700001C002C003C004C005C006C0077508005F
:10088000D2B38508907F647E001208B67508FA8599
:100890000890C2B3D007D006D005D004D003D00250
:0F08A000D001D000D0D0D082D083D0F0D0E032C1
:0708AF008508907FF47E0133
:1008B600D3EF9400EE940040147D6E7C00ED1D7025
:0D08C600011CED4C70F7EF1F70E61E80E383
:0108D3002202
:00000001FF
