:10080000C2B37508FE750900750A07120891AF0892
:100810007801EF08800123D8FDF508E50A150A7074
:10082000021509D3E50A9400E5096480948050DB41
:10083000750900750A07D3E50A9400E509648094F8
:100840008040C2120891AF087801EF08800103D8F8
:0D085000FDF508E50A150A70DD150980D9CF
:070891008508907FF47E0151
:10089800D3EF9400EE9400401B7D6E7C00D3EF9460
:1008A80000EE94004007ED1D70F31C80F0EF1F7000
:0408B800DF1E80DCE3
:0108BC002219
:0300030002085D93
:10085D00C0E0C0D075D000C004C005C006C007D22E
:10086D00B37F647E001208987508FFC2B37F647E63
:10087D00001208987508FED007D006D005D004D018
:04088D00D0D0E032B5
:030000000208BD36
:0C08BD00787FE4F6D8FD75810A0208007F
:00000001FF
