:030000000208AF44
:0C08AF00787FE4F6D8FD75810A0208008D
:100800007508FE750900750A07120888AF08780197
:10081000EF08800123D8FDF508E50A150A700215D6
:1008200009D3E50A9400E5096480948050DB7509DA
:1008300000750A08120888AF087801EF08800103E4
:10084000D8FDF508E50A150A70021509D3E50A94E2
:1008500000E5096480948050DBE4F59012088B7504
:100860000900750A05D3E50A9400E50964809480BF
:10087000408E7590FF12088BE4F59012088BE50A04
:08088000150A70E1150980DD85
:070888008508907FF47E015A
:10088F00D3EF9400EE6480948040147D6E7C00ED75
:0F089F001D70011CED4C70F7EF1F70E41E80E11F
:0108AE002227
:00000001FF
