:0300000002098072
:0C098000787FE4F6D8FD75810C020800B9
:10080000750900750A03750B00750C037508551200
:10081000095C850890E50C150C7002150BD3E50CEE
:100820009400E50B6480948050E2750B00750C0316
:100830007508AA12095C850890E50C150C70021564
:100840000BD3E50C9400E50B6480948050E2E50A3C
:10085000150A70021509D3E50A9400E5096480942D
:100860008050A37508FE850890750900750A037508
:100870000B00750C07120959AF087801EF088001C9
:1008800023D8FDF508E50C150C7002150BD3E50C0B
:100890009400E50B6480948050DB750B00750C07A9
:1008A000120959AF087801EF08800103D8FDF50857
:1008B000E50C150C7002150BD3E50C9400E50B64E8
:1008C00080948050DBE50A150A70021509D3E50A09
:1008D0009400E50964809480509575087E850890A1
:1008E000750900750A031209567508BD1209597574
:1008F00008DB1209597508E71209597508DB120956
:10090000597508BD120959120956E50A150A7002EF
:100910001509D3E50A9400E5096480948050C7E482
:10092000F508850890F509750A03E4F50812095CD5
:100930008508907508FF12095C850890E50A150A7C
:1009400070021509D3E50A9400E50964809480508B
:06095000D97590FF80FE46
:0A09560075087E8508907FF47E018D
:10096000D3EF9400EE6480948040147D6E7C00EDA3
:0F0970001D70011CED4C70F7EF1F70E41E80E14D
:01097F002255
:00000001FF
