:030000000209C62C
:0C09C600787FE4F6D8FD75810A02080075
:100800007508FE750900750A0812099FAF0878017E
:10081000EF08800123D8FDF508E50A150A700215D6
:1008200009D3E50A9400E5096480948050DB7508DB
:10083000FC750900750A0712099FAF087801EF08D7
:10084000800123D8FDF508E50A150A70021509D3C1
:10085000E50A9400E5096480948050DB7508F8751A
:100860000900750A0612099FAF087801EF08800198
:1008700023D8FDF508E50A150A70021509D3E50A23
:100880009400E5096480948050DB7508F0750900D8
:10089000750A0512099FAF087801EF08800123D877
:1008A000FDF508E50A150A70021509D3E50A94005A
:1008B000E5096480948050DB7508E0750900750ACD
:1008C0000412099FAF087801EF08800123D8FDF5D5
:1008D00008E50A150A70021509D3E50A9400E5092E
:1008E0006480948050DB7508C0750900750A031296
:1008F000099FAF087801EF08800123D8FDF508E5CE
:100900000A150A70021509D3E50A9400E509648006
:10091000948050DB750880750900750A0212099FE2
:10092000AF087801EF08800123D8FDF508E50A1526
:100930000A70021509D3E50A9400E50964809480E1
:1009400050DBE4F508F509750A0112099FAF087834
:1009500001EF08800123D8FDF508E50A150A7002A9
:100960001509D3E50A9400E5096480948050DB758D
:100970000900750A027590FF1209A2E4F5901209A8
:10098000A2E50A150A70021509D3E50A9400E509E3
:0F0990006480948050DFE4F5901209A202080001
:07099F008508907FF47E0142
:1009A600D3EF9400EE6480948040147D6E7C00ED5D
:0F09B6001D70011CED4C70F7EF1F70E41E80E107
:0109C500220F
:00000001FF
