:0300000002096092
:0C096000787FE4F6D8FD75812B0209A712
:100A1500101881BFBF81BDBDBD8181FBF7EFEFEF31
:100A2500EFEF080881EFEF00EFCFAE60081001028D
:060A3500040810294080B6
:10080000C2A3E5A064F7600302088AF52AF52BE489
:10081000F528F5297418120A3E120A3C1209EC1246
:100820000A5C0529E52970020528C39408E52864B7
:1008300080948040DF052BE52B7002052AC394507D
:10084000E52A6480948040C7E4F52AF52BC3E52BA4
:100850009450E52A6480948050A8E4F528F5297422
:1008600020120A3E120A3C1209EC120A5C0529E524
:100870002970020528C39408E5286480948040DF2D
:10088000052BE52B70C7052A80C3E5A064F67041EF
:10089000F52AF52BC3E52B9450E52A64809480500B
:1008A000E9E4F528F5297420120A3E120A3C1209DF
:1008B000EC120A5C0529E52970020528C39408E5B5
:1008C000286480948040DF052BE52B70C7052A80C3
:1008D000C3E5A064F57041F52AF52BC3E52B9450D0
:1008E000E52A6480948050E9E4F528F5297418120B
:1008F0000A3E120A3C1209EC120A5C0529E529702D
:10090000020528C39408E5286480948040DF052B05
:10091000E52B70C7052A80C3E5A064F47041F52A71
:10092000F52BC3E52B9450E52A6480948050E9E4CC
:10093000F528F5297408120A3E120A3C1209EC1235
:100940000A5C0529E52970020528C39408E5286496
:0F09500080948040DF052BE52B70C7052A80C3FC
:01095F002275
:070A3C0074102529F8E6FF04
:100A4300E4FDFCEF25E0FF9291C290D2900DBD0032
:080A5300010CED64084C70EB8E
:010A5B002278
:050A5C00C292D29222BB
:0409EC007F017E0009
:1009F000E4FDFCAB07AA06D3EB9400EA6480948084
:100A00004007EB1B70F11A80EE0DBD00010CED6488
:040A10006E4C70DFD9
:010A140022BF
:10096C00020800E493A3F8E493A34003F68001F299
:10097C0008DFF48029E493A3F85407240CC8C3338C
:10098C00C4540F4420C8834004F456800146F6DF5B
:10099C00E4800B0102040810204080900A15E47ECC
:1009AC00019360BCA3FF543F30E509541FFEE49350
:1009BC00A360010ECF54C025E060A840B8E493A317
:1009CC00FAE493A3F8E493A3C8C582C8CAC583CA42
:1009DC00F0A3C8C582C8CAC583CADFE9DEE780BEFA
:010A3B0000BA
:00000001FF
