:03000000020800F3
:0C080000787FE4F6D8FD758127020847D8
:1009C00010083F065B4F666D7D077F6F777C585E32
:0C09D00079710818FEFDFBF7EFDFBF7F18
:10091700C2A3E4F5A07F0AFE12099B20A06DD2A313
:100927007FF47E0112099BE4F520F521C2A3AE20D6
:10093700AF217C007D0A12088C8E248F25AE20AF54
:10094700217C007D0A12088C8C268D27E4F522F580
:10095700237590FE740825251209937590FD740878
:1009670025271209930523E52370020522C3941452
:10097700E5226480948040D90521E5217002052095
:0B098700C39464E5206480948040A1CC
:010992002242
:08099300F8E6F5807F057E0007
:10099B00E4FDFCAB07AA06D3EB9400EA64809480D9
:1009AB004007EB1B70F11A80EE0DBD00010CED64DE
:0409BB006E4C70DF2F
:0109BF002215
:10080C00020917E493A3F8E493A34003F68001F2E2
:10081C0008DFF48029E493A3F85407240CC8C333ED
:10082C00C4540F4420C8834004F456800146F6DFBC
:10083C00E4800B01020408102040809009C0E47E83
:10084C00019360BCA3FF543F30E509541FFEE493B1
:10085C00A360010ECF54C025E060A840B8E493A378
:10086C00FAE493A3F8E493A3C8C582C8CAC583CAA3
:10087C00F0A3C8C582C8CAC583CADFE9DEE780BE5B
:0109DC00001A
:10088C00C2D5EC30E709B2D5E4C39DFDE49CFCEE87
:10089C0030E715B2D5E4C39FFFE49EFE1208C2C335
:1008AC00E49DFDE49CFC80031208C230D507C3E430
:0608BC009FFFE49EFE22F6
:1008C200BC000BBE0029EF8DF084FFADF022E4CC1A
:1008D200F875F008EF2FFFEE33FEEC33FCEE9DECE3
:1008E200984005FCEE9DFE0FD5F0E9E4CEFD22ED29
:1008F200F8F5F0EE8420D21CFEADF075F008EF2F73
:10090200FFED33FD4007985006D5F0F222C398FD63
:050912000FD5F0EA2200
:00000001FF
