:0300000002099161
:0C099100787FE4F6D8FD75812B0209D8B0
:100A6E00100C3F065B4F666D7D077F6F777C585E7F
:0E0A7E0079710408FEFDFBF70420000102035D
:10080000E4F524F5A0C2A3D2A51208D8EFF460F94C
:10081000E524C394045032740C2FF8E6FF742625A7
:1008200024F8A60774262524F8E6FF741C2524F86E
:10083000A60774082524F8E6FF120A8D74262524DD
:10084000F8E6FF120A8D120AA60524E524B404B9BD
:10085000E4F524740C2520F8E6651C7042740C2520
:1008600021F8E6651D7038740C2522F8E6651E70C7
:100870002E740C2523F8E6651F7024D2A4D2A3C2DF
:10088000A57F64FE120A23C2A3E4FF120A8D120A96
:10089000A67F2C7E01120A23C2A4D2A5020809E475
:1008A000FF120A8D120AA6752505AF251525EF60E2
:1008B0000ED2A3120A1DC2A3C2A5120A1F80EB7595
:1008C000240FAF241524EF600A120A1DC2A5120AD4
:0808D0001F80EFD2A502080908
:100A8D00E4FDFCEF25E0FF9281C280D2800DBD0018
:080A9D00010CED64084C70EB44
:010AA500222E
:050AA600C282D2822291
:060A1D00D2A57F647E00FB
:100A2300E4FDFCAB07AA06D3EB9400EA6480948050
:100A33004007EB1B70F11A80EE0DBD00010CED6455
:040A43006E4C70DFA6
:010A4700228C
:1008D80075B00FE5B0640F700302098B85B02A75F7
:1008E800B0F0AFB0EF422AE5B064F0700302098EB1
:1008F800E52A120A48097F7709687B09547D09406F
:100908007E0979B70963BB094FBD093BBE0973D797
:10091800095EDB094ADD0936DE096DE70959EB098D
:1009280045ED0931EE00000985E4F52B80B9752BFA
:100938000180B4752B0280AF752B0380AA752B0438
:1009480080A5752B0580A0752B06809B752B0780CD
:1009580096752B088091752B09808C752B0A8087DA
:10096800752B0B8082752B0C0208EF752B0D020876
:10097800EF752B0E0208EF752B0F0208EF752BFF92
:080988000208EF752BFFAF2BF5
:010990002244
:10099D00020800E493A3F8E493A34003F68001F268
:1009AD0008DFF48029E493A3F85407240CC8C3335B
:1009BD00C4540F4420C8834004F456800146F6DF2A
:1009CD00E4800B0102040810204080900A6EE47E42
:1009DD00019360BCA3FF543F30E509541FFEE4931F
:1009ED00A360010ECF54C025E060A840B8E493A3E6
:1009FD00FAE493A3F8E493A3C8C582C8CAC583CA11
:100A0D00F0A3C8C582C8CAC583CADFE9DEE780BEC8
:010A8C000069
:100A4800D083D082F8E4937012740193700DA3A33D
:100A580093F8740193F5828883E473740293686051
:060A6800EFA3A3A380DF51
:00000001FF
