:030000000208C42F
:0C08C400787FE4F6D8FD75810D02090B69
:0309A100010DFF46
:100800007FFF12097B12099830A0030208C3E4F5A8
:100810000AF50B750C01E4F508F509AF0C12097B1C
:10082000AF0C7801EF08800123D8FD12095012099E
:10083000980509E50970020508C39408E508648075
:10084000948040D7750C80750800750908AF0C12AC
:10085000097BAF0C7801EF08800103D8FD12095025
:10086000120998E509150970021508D3E5099400E5
:10087000E5086480948050D5050BE50B7002050AED
:10088000C39402E50A648094804088750C03E4F503
:1008900008F509C3E5099407E508648094804003DE
:1008A00002080EAF0C12097BAF0C7801EF08800133
:1008B00023D8FD1209501209980509E509700205AF
:0308C0000880D0DD
:0108C3002212
:10097B00E4FDFCEF25E0FF9284C2830000D28300EC
:0C098B00000DBD00010CED64084C70E78D
:01099700223D
:09099800C2850000D28500002296
:06095000F50C7FF47E01AE
:10095600E4FDFCAB07AA06D3EB9400EA648094801E
:100966004007EB1B70F11A80EE0DBD00010CED6423
:040976006E4C70DF74
:01097A00225A
:1008D000020800E493A3F8E493A34003F68001F236
:1008E00008DFF48029E493A3F85407240CC8C33329
:1008F000C4540F4420C8834004F456800146F6DFF8
:10090000E4800B01020408102040809009A1E47EDD
:10091000019360BCA3FF543F30E509541FFEE493EC
:10092000A360010ECF54C025E060A840B8E493A3B3
:10093000FAE493A3F8E493A3C8C582C8CAC583CADE
:10094000F0A3C8C582C8CAC583CADFE9DEE780BE96
:0109A4000052
:00000001FF
