:03000000020800F3
:0C080000787FE4F6D8FD758121020847DE
:10099500100A3F065B4F666D7D077F6F777C585E5B
:0609A50079710208FEFD5D
:10094A00E4F580F5A0E4F51AF51BAF1BAE1A120800
:10095A008C051BE51B7002051AC39464E51A6480B2
:06096A00948040E680DFEE
:04088C00AB07AA0606
:100890007C007D0A1208F58E1C8F1DAE02AF037C12
:1008A000007D0A1208F58C1E8D1FE4F520F521AF9E
:1008B000081209AC740A251DF8E6FF1209AC1209EA
:1008C000C17F057E00120970AF091209AC740A25B8
:1008D0001FF8E6FF1209AC1209C17F057E0012095C
:1008E000700521E52170020520C39432E520648063
:0408F000948040BBF5
:0108F40022E1
:1009AC00E4FEEF25E0FF9281C2800000D2800000BF
:0409BC000EBE08EE75
:0109C0002214
:0909C100C2820000D28200002273
:10097000E4FDFCAB07AA06D3EB9400EA6480948004
:100980004007EB1B70F11A80EE0DBD00010CED6409
:040990006E4C70DF5A
:010994002240
:10080C0002094AE493A3F8E493A34003F68001F2AF
:10081C0008DFF48029E493A3F85407240CC8C333ED
:10082C00C4540F4420C8834004F456800146F6DFBC
:10083C00E4800B0102040810204080900995E47EAE
:10084C00019360BCA3FF543F30E509541FFEE493B1
:10085C00A360010ECF54C025E060A840B8E493A378
:10086C00FAE493A3F8E493A3C8C582C8CAC583CAA3
:10087C00F0A3C8C582C8CAC583CADFE9DEE780BE5B
:0109AB00004B
:1008F500BC000BBE0029EF8DF084FFADF022E4CCE7
:10090500F875F008EF2FFFEE33FEEC33FCEE9DECAF
:10091500984005FCEE9DFE0FD5F0E9E4CEFD22EDF5
:10092500F8F5F0EE8420D21CFEADF075F008EF2F3F
:10093500FFED33FD4007985006D5F0F222C398FD30
:050945000FD5F0EA22CD
:00000001FF
