:03000000020AE70A
:0C0AE700787FE4F6D8FD758129020B2E03
:100C2B00100C3F065B4F666D7D077F6F777C585EC0
:080C3B0079710408FEFDFBF7CE
:100B7300E4F51CF51DD2A0F580C3E51D9410E51C1A
:100B8300648094A75058AFA0EF2409601224FA6040
:100B93001824027032051DE51D702C051C8028E504
:100BA3001D151D7022151C801EC3E51D9410E51C28
:100BB300648094A750F3AF1DAE1C120A04051DE513
:100BC3001D70E6051C80E2C3E51C6480948050051B
:0E0BD300E4F51CF51DAF1DAE1C120A04809B3C
:010BE10022F1
:040A0400AB07AA068C
:100A08007C037DE81209AF8E1E8F1F7C007D64AFCA
:100A180003AE021209AF7C007D0A1209AF8C208D4B
:100A2800217C007D0AAF03AE021209AF7C007D0A6B
:100A38001209AF8C228D23AE02AF037C007D6412B5
:100A480009AF7E007F0ACFCDCFCECCCE1209AF8CB6
:100A5800248D25E4F529F528F527F5267F667E6699
:100A68007DA67C40AB29AA28A927A8261208F850F9
:100A78006BAF08120C0E740C251F120C0B120C44D1
:100A8800120BE2AF09120C0E740C2521120C0B127A
:100A98000C44120BE2AF0A120C0E740C2523F8E674
:100AA800FF120C0E120C44120BE2AF0B120C0E7458
:100AB8000C2525F8E6FF120C0E120C44120BE2AFBF
:100AC80029AE28AD27AC26E4FBFA7980783F1208D6
:0F0AD800078F298E288D278C26020A64020C4472
:030C0B00F8E6FF09
:100C0E00E4FDFCEF25E0FF9281C2800000D280005F
:0C0C1E00000DBD00010CED64084C70E7F7
:010C2A0022A7
:090C4400C2820000D282000022ED
:040BE2007F057E000D
:100BE600E4FDFCAB07AA06D3EB9400EA648094808C
:100BF6004007EB1B70F11A80EE0DBD00010CED6491
:040C06006E4C70DFE1
:010C0A0022C7
:1008000002099AE86480F8E933E83360110460F083
:10081000ED33EC337009E8FCE9FDEAFEEBFF22045E
:1008200060DED3EB9FEA9EE99DE8C2E78CF0C2F759
:1008300095F0400CE8CCF8E9CDF9EACEFAEBCFFB25
:1008400012096585D0F05804700320D5B3E8047010
:10085000075002B2D50209A492D5EC0460F7E4CCAB
:10086000C0E0C398F8603B94186008400DD0E0FBEE
:1008700002097CE4FBFAC9FC8028E830E406E4C9FC
:10088000FBE4CAFCE830E305E4C9CACBFCE8540742
:100890006010F8C3E913F9EA13FAEB13FBEC13FC4D
:1008A000D8F130F52FC3E49CFCEF9BFFEE9AFEEDF0
:1008B00099FDD0E0FBEF4E4D4C701222DB03020994
:1008C000A1EC2CFCEF33FFEE33FEED33FDED30E712
:1008D000EB02097CEF2BFFEE3AFEED39FDD0E0FB99
:1008E00050130BBB00030209A4ED13FDEE13FEEF42
:0808F00013FFEC13FC02097C6C
:1008F80074F8CC6480CCC86480C8F582046043C3B3
:10090800EB9FF5F0EA9E42F0E99D42F0E89C45F045
:1009180060305018E5825FFFE582F42B5582FB506A
:10092800210ABA001D09B90019088016E5825BFB87
:10093800E582F42F5582FF50090EBE00050DBD005B
:10094800010CC3EB9FF5F0EA9E42F0E99D42F0E806
:0D0958009C45F06007CC4820E701B3EC227D
:10096500E9D2E7C933E833F892D5EDD2E7CD33ECD8
:0709750033FC5002B2D52251
:10097C00EC30E7100FBF000C0EBE00080DBD0004DC
:10098C000BEB6014A2D5EB13FCED92E7FD2274FF88
:10099C00FCFDFEFF22E480F8A2D574FF13FC7D80E1
:0309AC00E480EFF5
:100AF300020B73E493A3F8E493A34003F68001F29B
:100B030008DFF48029E493A3F85407240CC8C33303
:100B1300C4540F4420C8834004F456800146F6DFD2
:100B2300E4800B0102040810204080900C2BE47E2B
:100B3300019360BCA3FF543F30E509541FFEE493C7
:100B4300A360010ECF54C025E060A840B8E493A38E
:100B5300FAE493A3F8E493A3C8C582C8CAC583CAB9
:100B6300F0A3C8C582C8CAC583CADFE9DEE780BE71
:010C430000B0
:1009AF00BC000BBE0029EF8DF084FFADF022E4CC2C
:1009BF00F875F008EF2FFFEE33FEEC33FCEE9DECF5
:1009CF00984005FCEE9DFE0FD5F0E9E4CEFD22ED3B
:1009DF00F8F5F0EE8420D21CFEADF075F008EF2F85
:1009EF00FFED33FD4007985006D5F0F222C398FD76
:0509FF000FD5F0EA2213
:00000001FF
