:100879003F065B4F666D7D077F6F777C395E7971C7
:10088900000000000000000000000000000000005F
:10089900E4F528E52890088193FF74082528F8A62F
:0D08A900070528E528B408EB12080080FBC5
:10080000E4F528E528B40800504D900811F8282890
:100810007302085102082902082D0208350208391E
:1008200002084102084502084DC2A48002D2A4C2B7
:10083000A3C2A28022C2A48002D2A4D2A3C2A28058
:1008400016C2A48002D2A4C2A3D2A2800AC2A480EB
:1008500002D2A4D2A3D2A274082528F8E6F5807F9C
:10086000D07E07EF1FAC0670011E4C70F6E4F580D9
:080870000528E5286408708BDF
:01087800225D
:030000000208B63D
:0C08B600787FE4F6D8FD758128020899CF
:00000001FF
