:03000000020EA746
:0C0EA700787FE4F6D8FD75816B0208002E
:100E3F003F065B4F666D7D077F6F777C395E7971FB
:100E4F00804020101020408004050406040704048D
:080E5F00040004030007010573
:090E8400E53D93F5A07F207E03FB
:0B0E8D00EF1FAC0670011E4C70F62237
:0B0DEA00C2817F147E00120DF5D28143
:100DF500E4FDFCC3ED9FEC9E5015E4FBFA0BBB0034
:0F0E0500010AEB646E4A70F50DBD00010C80E42C
:010E140022BB
:0F0E9800758902E4F58CF58AD2AFD2A9D28C22EB
:070EB300D2AFD2AAD28A22BD
:100E15007E01E4FDE4FCEFC313FF74082EF8E6D36E
:100E2500940640034307800E0CBC08EA742A2DF88B
:090E3500A6070DBD04DE753901AC
:010E3E002291
:100DB500E52AC4540FF52EE52A540FF52FE52BC46B
:100DC500540FF530E52B540FF531E52CC4540FF5D0
:100DD50032E52C540FF533E52DC4540FF534E52DCC
:050DE500540FF535225A
:100E67007914C280AF0119EF6010D2A07F017E0014
:0C0E7700120DF5C2A0120DF580EAD28029
:010E8300224C
:10080000E4F53AF53BF53EF53FF540F541F542F5A7
:1008100043F544754501F546754701F548754901AD
:10082000F54AF54BF54CF54DF54EF54FF550F551B4
:1008300078527C00FD7BFF7A0E7957FE7F08120DFF
:100840005278627C007D007BFF7A0E795F7E007FAC
:1008500008120D52120E98120EB3E5386006120EF1
:1008600015E4F538E539600B120DB5E4F539F53EC0
:0E087000753F01E53264017030E533B4062BAC
:10087E00E4F56A745A256AF8E4F6056AE56AB4087E
:10088E00F2754400754501754600754701E4F54A59
:0B089E00F54BF548754901F53AF53BB4
:1008A900E53F453E603A120E67AF3B745A2FF8A6F2
:1008B90032745B2FF8A6337402253BF53BE4353AD5
:1008C900F53AE4F53EF53FF550755101054BE54B19
:1008D9007002054AE53B6408453A7004F53AF53B70
:0A08E900E532B4011FE533B4091A2B
:1008F300E4F56A745A256AF8E4F6056AE56AB40809
:0A090300F2E4F548F549F53AF53B3A
:10090D00E54945486003020B03E552655A706AE5F7
:10091D0053655B7064E554655C705EE555655D70AF
:10092D0058E556655E7052E557655F704CE5586544
:09093D00607046E55965617040E7
:10094600F54C754D01F56AF56B120DEA056BE56B15
:100956007002056AC3940AE56A940040ECE4F56AFD
:10096600F56B745A256BF8E4F6056BE56B700205BA
:100976006A6408456A70EBE4F53AF53BF550F551C3
:10098600E562655A7075E563655B706FE564655C85
:100996007069E565655D7063E566655E705DE56772
:1009A600655F7057E56865607051E5696561704B14
:1009B600F54E754F01F56AF56BC2827F1E7E0012F9
:1009C6000DF5D282120DF5056BE56B7002056AC353
:1009D600940AE56A940040E1E4F56AF56B745A25D9
:1009E6006BF8E4F6056BE56B7002056A6408456A08
:0B09F60070EBE4F53AF53BF550F551CD
:0C0A0100E54D454C6074E5514550606EB9
:100A0D00AF4174522FF8A63274532FF8A6337402E7
:100A1D002541F541E43540F540E541640845407018
:100A2D0048F540F541F54CF54DF548754901F54A48
:100A3D00F54BF56AF56B745A256BF8E4F6056BE525
:100A4D006B7002056A6408456A70EBE4F56AF56B34
:100A5D00120DEA056BE56B7002056AC3940AE56A2F
:0E0A6D00940040ECE4F53AF53BE4F550F55109
:0F0A7B00E54F454E7003020B03E551455060797E
:100A8A00AF4374622FF8A63274632FF8A633740248
:100A9A002543F543E43542F542E54364084542708F
:100AAA0053F542F543F54EF54FF548754901F54AB8
:100ABA00F54BF56AF56B745A256BF8E4F6056BE5A8
:100ACA006B7002056A6408456A70EBE4F56AF56BB7
:100ADA00C2827F147E00120DF5D282120DF5056BCB
:100AEA00E56B7002056AC3940AE56A940040E1E482
:090AFA00F53AF53BE4F550F55125
:100B0300E5494548700302085AE552655A7078E58D
:100B130053655B7072E554655C706CE555655D709B
:100B230066E556655E7060E557655F705AE5586522
:090B3300607054E5596561704ED3
:100B3C00F56A756B80E54545446043C281E56B15EC
:100B4C006BAE6A7002156A4E6020E4F53CF53DC34D
:100B5C00E53D9404E53C940050E3900E4F120E8456
:100B6C00053DE53D70E9053C80E5D281E4F544F5B1
:0E0B7C0045F546754701F54AF54BF53AF53B50
:100B8A00E562655A7078E563655B7072E564655C79
:100B9A00706CE565655D7066E566655E7060E56763
:100BAA00655F705AE56865607054E5696561704E05
:100BBA00F56A756B80E54745466043C282E56B1569
:100BCA006BAE6A7002156A4E6020E4F53CF53DC3CF
:100BDA00E53D9404E53C940050E3900E53120E84D4
:100BEA00053DE53D70E9053C80E5D282E4F546F530
:0E0BFA0047F544754501F54AF54BF53AF53BD4
:100C0800E5327044E5336409703EE5454544600FBC
:0F0C1800E4F56A120DEA056AE56AC3940A40F42E
:060C2700E5474546601A96
:100C2D00E4F56AC2827F147E00120DF5D282120D98
:0A0C3D00F5056AE56AC3940A40E970
:100C4700E4F532F533F53AF53BD3E54B9405E54A40
:070C57009400500302085A4B
:100C5E00756A00756B14E56B156BAE6A7002156ADA
:100C6E004E6005120E6780EEE4F53AF53BF54AF557
:010C7E004B2A
:030C7F0002085A0E
:03000B00020EBA28
:030EBA00052932D5
:03001300020D7863
:100D7800C0E0C0D075D000C000E5376023E529D3B6
:100D88009423400375360074082536F8A62975297A
:100D9800000536E536B4210E753600753801800633
:0D0DA800753701752900D000D0D0D0E032A1
:100C8200E709F608DFFA8046E709F208DFFA803E54
:100C920088828C83E709F0A3DFFA8032E309F60841
:100CA200DFFA8078E309F208DFFA807088828C83A9
:100CB200E309F0A3DFFA806489828A83E0A3F6085D
:100CC200DFFA805889828A83E0A3F208DFFA804C37
:100CD20080D280FA80C680D4806980F2803380100E
:100CE20080A680EA809A80A880DA80E280CA803377
:100CF20089828A83ECFAE493A3C8C582C8CCC583EF
:100D0200CCF0A3C8C582C8CCC583CCDFE9DEE780BE
:100D12000D89828A83E493A3F608DFF9ECFAA9F03D
:100D2200EDFB2289828A83ECFAE0A3C8C582C8CC93
:100D3200C583CCF0A3C8C582C8CCC583CCDFEADEAC
:100D4200E880DB89828A83E493A3F208DFF980CC0E
:100D520088F0EF60010E4E60C388F0ED2402B40407
:100D62000050B9F582EB2402B4040050AF232345AE
:060D72008223900CD273F5
:00000001FF
