:03000000020410E7
:0C041000787FE4F6D8FD758134020457B3
:1005E70010113F065B4F666D7D077F6F777C585E06
:0C05F70079710809FEFDFBF7EFDFBF7F04
:10000300C2A3E5A054F7240D700302022824FD7057
:1000130003020288147003020374240260030203C0
:100023007C750801750801E4F527F528AF0812056A
:10003300CAAF087801EF08800123D8FDF50812063E
:100043000D7FF47E011205810528E528700205273E
:10005300C39408E5276480948040D1750803E4F5D0
:1000630027F528AF081205CAAF087801EF08800109
:1000730023D8FDF50812060D7FF47E0112058105D4
:1000830028E52870020527C39407E5276480948038
:1000930040D1750807E4F527F528AF081205CAAF64
:1000A300087801EF08800123D8FDF50812060D7FBB
:1000B300F47E011205810528E52870020527C39403
:1000C30006E5276480948040D175080FE4F527F591
:1000D30028AF081205CAAF087801EF08800123D8BA
:1000E300FDF50812060D7FF47E011205810528E552
:1000F3002870020527C39405E5276480948040D1C6
:1001030075081FE4F527F528AF081205CAAF08786C
:1001130001EF08800123D8FDF50812060D7FF47E58
:10012300011205810528E52870020527C39404E51B
:10013300276480948040D175083FE4F527F528AF04
:10014300081205CAAF087801EF08800123D8FDF52E
:100153000812060D7FF47E011205810528E528703B
:10016300020527C39403E5276480948040D1750872
:100173007FE4F527F528AF081205CAAF087801EF29
:1001830008800123D8FDF50812060D7FF47E0112C5
:1001930005810528E52870020527C39402E5276435
:1001A30080948040D17508FFE4F527F528AF081245
:1001B30005CAAF087801EF08800123D8FDF50812BE
:1001C300060D7FF47E011205810528E528700205DE
:1001D30027C39401E5276480948040D17FFF1205F3
:1001E300CA7F207E03120581E4F527F528C3E5289D
:1001F3009464E5276480948040030200277F4012C3
:1002030005CA12060D7F647E001205817F801205E8
:10021300CA12060D7F647E001205810528E5287049
:05022300CC052780C896
:10022800E4F529F52AAF2AAE2912037D052AE52A25
:1002380070020529C39410E529648094A740E6E478
:10024800F529F52A7F0F7E2712037D052AE52A70F6
:10025800020529C39464E5296480948040E6E4F5A6
:1002680029F52AC3E52A9464E5296480948050CF4F
:10027800E4FFFE12037D052AE52A70E7052980E3DD
:1002880075250075261E7F241205CA12060D120454
:100298009CD2A37F647E00120581E5261526700294
:1002A8001525D3E5269403E5256480948050D775F9
:1002B80025007526037F241205CA12060D12049C18
:1002C800D2A37F287E00120581E526152670021527
:1002D80025C3E5256480948050DB752300752403CD
:1002E8007F121205CA12060DC2A3AF24AE23120450
:1002F800A2E524152470021523D3E5249400E523F0
:100308006480948050DA7521007522397F091205BE
:10031800CA12060DC2A3AF22AE211204A2E522150D
:100328002270021521D3E5229403E521648094808C
:1003380050DA752100752203D3E5229400E5216483
:1003480080948050030202887F091205CA12060DA4
:10035800C2A3AF22AE211204A2D2A37F287E00122C
:100368000581E522152270D0152180CC7FC01205A9
:04037800CA12060D92
:01037C00225E
:06049C00C2A3AF26AE254D
:0404A200AB07AA06F4
:1004A6007C007D0A12051F8E2B8F2CAE02AF037CBB
:1004B600007D0A12051F8C2D8D2EE4F52FF530AF29
:1004C600091205AD1205A612060412057DAF0A1221
:1004D60005AD7411252EF8E6FF1205AD12060412BD
:1004E600057DAF0B1205AD1205A612060412057D99
:1004F600AF0C1205AD7411252EF8E6FF1205AD12EC
:10050600060412057D0530E5307002052FC39428D8
:08051600E52F6480948040A7EA
:01051E0022BA
:0705A6007411252CF8E6FF9B
:1005AD00E4FDFCEF25E0FF9281C2800000D28000C7
:0C05BD00000DBD00010CED64084C70E75F
:0105C900220F
:09060400C2820000D28200002233
:04037D00AB07AA061A
:100381007C037DE812051F8E2B8F2C7C007D64AFD2
:1003910003AE0212051F7C007D0A12051F8C2D8DF4
:1003A1002E7C007D0AAF03AE0212051F7C007D0A80
:1003B10012051F8C2F8D30AE02AF037C007D0A1217
:1003C100051F8C318D32E4F533F534AF0D1205ADD7
:1003D1007411252C120574AF0E1205AD7411252E62
:1003E100120574AF0F1205AD74112530120574AFEB
:1003F100101205AD741125321205740534E53470FF
:0E040100020533C39401E5336480948040BD4E
:01040F0022CA
:1005CA00E4FDFCEF25E0FF9284C2830000D28300A1
:0C05DA00000DBD00010CED64084C70E742
:0105E60022F2
:09060D00C2850000D28500002224
:0D057400F8E6FF1205AD1206047F057E00BB
:10058100E4FDFCAB07AA06D3EB9400EA64809480F7
:100591004007EB1B70F11A80EE0DBD00010CED64FC
:0405A100464C70DF75
:0105A5002233
:10041C00020003E493A3F8E493A34003F68001F2F3
:10042C0008DFF48029E493A3F85407240CC8C333E1
:10043C00C4540F4420C8834004F456800146F6DFB0
:10044C00E4800B01020408102040809005E7E47E54
:10045C00019360BCA3FF543F30E509541FFEE493A5
:10046C00A360010ECF54C025E060A840B8E493A36C
:10047C00FAE493A3F8E493A3C8C582C8CAC583CA97
:10048C00F0A3C8C582C8CAC583CADFE9DEE780BE4F
:0106030000F6
:10051F00BC000BBE0029EF8DF084FFADF022E4CCC0
:10052F00F875F008EF2FFFEE33FEEC33FCEE9DEC89
:10053F00984005FCEE9DFE0FD5F0E9E4CEFD22EDCF
:10054F00F8F5F0EE8420D21CFEADF075F008EF2F19
:10055F00FFED33FD4007985006D5F0F222C398FD0A
:05056F000FD5F0EA22A7
:00000001FF
