:030000000209B939
:0C09B900787FE4F6D8FD75812B020A005F
:100A6E001810E7CF9F00009FCFE7E7F3F90000F9DA
:100A7E00F3E78181C3C3E7FFE7E708080102040833
:040A8E001020408074
:10080000C2A3E5A064F6600302088CF52AF52BE488
:10081000F528F5297410120A95120A93120A451246
:100820000AD70529E52970020528C39408E528643C
:1008300080948040DF052BE52B7002052AC39428A5
:10084000E52A6480948040C7E4F52AF52BC3E52BA4
:100850009414E52A6480948050A8E4F528F5297F53
:10086000FF120A9AE4FF120A9A120A45120AD705E1
:1008700029E52970020528C39408E528648094803E
:1008800040DD052BE52B70C5052A80C1E5A064F588
:100890006003020916F52AF52BE4F528F5297418EA
:1008A000120AB7120AB5120A45120ADE0529E5290D
:1008B00070020528C39408E5286480948040DF0511
:1008C0002BE52B7002052AC39428E52A64809480C6
:1008D00040C7E4F52AF52BC3E52B9414E52A648080
:1008E000948050A8E4F528F5297FFF120ABCE4FFA4
:1008F000120ABC120A45120ADE0529E52970020512
:1009000028C39408E5286480948040DD052BE52BFE
:1009100070C5052A80C1E5A064F360030209B8F53B
:100920002AF52BE4F528F5297420120A95120A936A
:100930007420120AB7120AB5120A45120AD7120A0F
:10094000DE0529E52970020528C39408E52864809E
:10095000948040D4052BE52B7002052AC39414E53E
:100960002A6480948040BCE4F52AF52BC3E52B94DF
:100970000AE52A64809480509DE4F528F5297FFFDC
:10098000120A9AE4FF120A9A7FFF120ABCE4FF12CD
:100990000ABC120A45120AD7120ADE0529E5297097
:1009A000020528C39408E5286480948040D0052B74
:0809B000E52B70B8052A80B4A4
:0109B800221C
:070A930074082529F8E6FFB5
:100A9A00E4FDFCEF25E0FF9291C290D290C2900D46
:0A0AAA00BD00010CED64084C70E97A
:010AB400221F
:070AD700C292D292C29222EA
:070AB50074082529F8E6FF93
:100ABC00E4FDFCEF25E0FF9294C293D293C2930D18
:0A0ACC00BD00010CED64084C70E958
:010AD60022FD
:070ADE00C295D295C29522DA
:040A45007F017E00AF
:100A4900E4FDFCAB07AA06D3EB9400EA648094802A
:100A59004007EB1B70F11A80EE0DBD00010CED642F
:040A69006E4C70DF80
:010A6D002266
:1009C500020800E493A3F8E493A34003F68001F240
:1009D50008DFF48029E493A3F85407240CC8C33333
:1009E500C4540F4420C8834004F456800146F6DF02
:1009F500E4800B0102040810204080900A6EE47E1A
:100A0500019360BCA3FF543F30E509541FFEE493F6
:100A1500A360010ECF54C025E060A840B8E493A3BD
:100A2500FAE493A3F8E493A3C8C582C8CAC583CAE8
:100A3500F0A3C8C582C8CAC583CADFE9DEE780BEA0
:010A92000063
:00000001FF
